{
  "contractName": "Message",
  "abi": [
    {
      "anonymous": false,
      "inputs": [
        {
          "indexed": false,
          "internalType": "address",
          "name": "receiver",
          "type": "address"
        },
        {
          "indexed": false,
          "internalType": "string",
          "name": "message",
          "type": "string"
        }
      ],
      "name": "notifyMessage",
      "type": "event"
    },
    {
      "constant": false,
      "inputs": [
        {
          "internalType": "address",
          "name": "whom",
          "type": "address"
        },
        {
          "internalType": "string",
          "name": "_message",
          "type": "string"
        }
      ],
      "name": "sendMessage",
      "outputs": [],
      "payable": false,
      "stateMutability": "nonpayable",
      "type": "function"
    }
  ],
  "bytecode": "0x608060405234801561001057600080fd5b5061036f806100206000396000f3fe608060405234801561001057600080fd5b506004361061002b5760003560e01c8063de6f24bb14610030575b600080fd5b6101096004803603604081101561004657600080fd5b81019080803573ffffffffffffffffffffffffffffffffffffffff1690602001909291908035906020019064010000000081111561008357600080fd5b82018360208201111561009557600080fd5b803590602001918460018302840111640100000000831117156100b757600080fd5b91908080601f016020809104026020016040519081016040528093929190818152602001838380828437600081840152601f19601f82011690508083019250505050505050919291929050505061010b565b005b336000806101000a81548173ffffffffffffffffffffffffffffffffffffffff021916908373ffffffffffffffffffffffffffffffffffffffff16021790555081600160006101000a81548173ffffffffffffffffffffffffffffffffffffffff021916908373ffffffffffffffffffffffffffffffffffffffff16021790555080600290805190602001906101a2929190610295565b507fd9fa121341b710499d430d62e71f999482a908924d85202597882bc2ca5546c1826002604051808373ffffffffffffffffffffffffffffffffffffffff1673ffffffffffffffffffffffffffffffffffffffff168152602001806020018281038252838181546001816001161561010002031660029004815260200191508054600181600116156101000203166002900480156102825780601f1061025757610100808354040283529160200191610282565b820191906000526020600020905b81548152906001019060200180831161026557829003601f168201915b5050935050505060405180910390a15050565b828054600181600116156101000203166002900490600052602060002090601f016020900481019282601f106102d657805160ff1916838001178555610304565b82800160010185558215610304579182015b828111156103035782518255916020019190600101906102e8565b5b5090506103119190610315565b5090565b61033791905b8082111561033357600081600090555060010161031b565b5090565b9056fea265627a7a7231582009240232c100648ae8e580b37d4fb9caa9a4047910a950625fb23909836353fc64736f6c63430005100032",
  "source": "// SPDX-License-Identifier: MIT\npragma solidity >=0.5.16;\n\ncontract Message{\n    address sender;\n    address receiver;\n    string message;\n\n    event notifyMessage(address receiver,string message);\n\n    function sendMessage(address whom,string memory _message) public{\n        sender=msg.sender;\n        receiver=whom;\n        message=_message;\n        emit notifyMessage(whom,message);\n    }\n\n    \n}\n",
  "sourcePath": "/home/ippolit/DApps/SendMessage/contracts/Message.sol",
  "compiler": {
    "name": "solc",
    "version": "0.5.16+commit.9c3226ce.Emscripten.clang"
  },
  "schemaVersion": "3.3.1",
  "updatedAt": "2020-10-31T20:06:47.666Z",
  "networkType": "ethereum",
  "devdoc": {
    "methods": {}
  },
  "userdoc": {
    "methods": {}
  }
}